:020000040800F2
:100000000018002009060008350500083D05000815
:10001000450500084D0500085505000800000000D2
:100020000000000000000000000000005D05000866
:10003000690500080000000075050008810500083A
:100040005106000851060008510600085106000834
:100050005106000851060008510600085106000824
:100060005106000851060008510600085106000814
:100070005106000851060008510600085106000804
:1000800051060008510600085106000851060008F4
:1000900051060008510600085106000851060008E4
:1000A00051060008510600085106000851060008D4
:1000B0005106000851060008000000005106000823
:1000C0005106000800000000000000005106000872
:1000D00000000000510600088D0500080000000027
:1000E00051060008510600085106000800000000F3
:1000F0000000000000000000000000000000000000
:0C01000000000000000000005FF808F1A3
:10010C0010B5054C237833B9044B13B10448AFF345
:10011C0000800123237010BD0C00002000000000A3
:10012C00E41F000808B5034B1BB103490348AFF3A8
:10013C00008008BD0000000010000020E41F000833
:10014C0090B585B000AF0346FB716446C7F800C09C
:10015C00FB7923620723FB6011E0236A002B03F079
:10016C000103B8BF5B421A46FB6844F82320236A9C
:10017C00DA0F13445B102362FB68013BFB60FB68E6
:10018C00002BEADA002201212F4800F0E3FDC82001
:10019C0000F0BCFA4FF0FF3319222C492C4801F027
:1001AC0058FA0023BB603BE0BB6854F82330012BAA
:1001BC0017D101220121244800F0CCFD962000F03B
:1001CC00A5FA00220121204800F0C4FD322000F0E5
:1001DC009DFA4FF0FF3301221E491D4801F039FAF8
:1001EC001BE0BB6854F82330002B16D101220121EF
:1001FC00154800F0AFFD322000F088FA00220121F2
:10020C00114800F0A7FD322000F080FA4FF0FF33C8
:10021C00012211490E4801F01CFABB680133BB6086
:10022C00BB68072BC0DD01220121074800F092FDBD
:10023C004FF0FF3304220949054801F00AFA00BFC8
:10024C001437BD4690BD00BF00080140FC1F0008DC
:10025C0028000020182000081C200008202000087E
:10026C0080B5ADF5836D00AF07F58463C7F8143422
:10027C0000F0EAF900F036F800F09AF800F06EF8A9
:10028C00302387F8EF334FF0FF331622124913480F
:10029C0001F0DFF907F2EF314FF0FF3301220F4885
:1002AC0001F070FA07F2EF314FF0FF3301220B48E7
:1002BC0001F0CFF94FF0FF3302220949074801F052
:1002CC00C8F997F8EF3307F57C7294461846FFF798
:1002DC0037FF00BFD7E700BF282000082800002008
:1002EC004020000880B590B000AF07F11803282219
:1002FC000021184601F044FE3B1D00221A605A6092
:10030C009A60DA601A610223BB610123BB6210237D
:10031C00FB6200237B6307F11803184600F032FDE3
:10032C000346002B01D000F075F80F237B600023EF
:10033C00BB600023FB6000233B6100237B613B1D02
:10034C000021184600F0A0FF0346002B01D000F05E
:10035C0061F800BF4037BD4680BD000080B500AFDE
:10036C00114B124A1A60104B4FF4E1325A600E4B8B
:10037C0000229A600C4B0022DA600B4B00221A61AF
:10038C00094B0C225A61084B00229A61064B002241
:10039C00DA61054801F010F90346002B01D000F09A
:1003AC0039F800BF80BD00BF280000200044004089
:1003BC0080B586B000AF07F1080300221A605A60BE
:1003CC009A60DA60114B9B69104A43F00403936105
:1003DC000E4B9B6903F004037B607B6800220121B8
:1003EC000B4800F0B7FC0123BB601123FB60012319
:1003FC003B6102237B6107F108031946044800F0B6
:10040C002DFB00BF1837BD4680BD00BF0010024059
:10041C000008014080B400AF72B600BF00BFFDE71A
:10042C0080B485B000AF154B9B69144A43F00103AF
:10043C009361124B9B6903F00103BB60BB680F4BCC
:10044C00DB690E4A43F08053D3610C4BDB6903F03C
:10045C0080537B607B680A4B5B68FB60FB6823F016
:10046C00E063FB60FB6843F08063FB60044AFB685D
:10047C00536000BF1437BD4680BC7047001002406B
:10048C000000014080B588B000AF786007F1100320
:10049C0000221A605A609A60DA607B681B681F4AF7
:1004AC00934237D11E4BDB691D4A43F40033D361B1
:1004BC001B4BDB6903F40033FB60FB68184B9B6937
:1004CC00174A43F004039361154B9B6903F0040333
:1004DC00BB60BB6804233B6102237B610323FB618C
:1004EC0007F1100319460F4800F0B8FA08233B61D6
:1004FC0000237B610023BB6107F1100319460948F7
:10050C0000F0ACFA00220021262000F0FAF9262097
:10051C0000F013FA00BF2037BD4680BD00440040F8
:10052C00001002400008014080B400AF00BFFDE79E
:10053C0080B400AF00BFFDE780B400AF00BFFDE7A3
:10054C0080B400AF00BFFDE780B400AF00BFFDE793
:10055C0080B400AF00BFBD4680BC704780B400AF14
:10056C0000BFBD4680BC704780B400AF00BFBD4625
:10057C0080BC704780B500AF00F0ACF800BF80BD08
:10058C0080B500AF024801F0A3F900BF80BD00BFE9
:10059C002800002080B400AF154B1B68144A43F0B0
:1005AC0001031360124B5A681149124B13404B60F4
:1005BC000F4B1B680E4A23F0847323F480331360B3
:1005CC000B4B1B680A4A23F480231360084B5B68AF
:1005DC00074A23F4FE035360054B4FF41F029A6045
:1005EC00054B4FF000629A6000BFBD4680BC70475F
:1005FC00001002400000FFF800ED00E0002103E0D5
:10060C000B4B5B58435004310A480B4B42189A422F
:10061C00F6D30A4A02E0002342F8043B084B9A4204
:10062C00F9D3FFF7B7FF01F0B3FCFFF719FE7047E2
:10063C0074200008000000200C0000200C0000209A
:10064C006C000020FEE7000080B500AF084B1B6873
:10065C00074A43F010031360032000F047F90F2002
:10066C0000F008F8FFF7DCFE0023184680BD00BF41
:10067C000020024080B582B000AF7860124B1A683F
:10068C00124B1B7819464FF47A73B3FBF1F3B2FBA0
:10069C00F3F3184600F05FF90346002B01D0012359
:1006AC000EE07B680F2B0AD8002279684FF0FF30E0
:1006BC0000F027F9064A7B681360002300E0012351
:1006CC0018460837BD4680BD0000002008000020F9
:1006DC000400002080B400AF054B1B781A46054B74
:1006EC001B681344034A136000BFBD4680BC7047AF
:1006FC00080000206800002080B400AF024B1B688B
:10070C001846BD4680BC70476800002080B584B098
:10071C0000AF7860FFF7F0FFB8607B68FB60FB68A8
:10072C00B3F1FF3F05D00A4B1B781A46FB68134404
:10073C00FB6000BFFFF7E0FF0246BB68D31AFA6804
:10074C009A42F7D800BF00BF1037BD4680BD00BF2E
:10075C000800002080B485B000AF78607B6803F09F
:10076C000703FB600C4BDB68BB60BA684FF6FF03FA
:10077C001340BB60FB681A02BB68134343F0BF63B2
:10078C0043F40033BB60044ABB68D36000BF14372A
:10079C00BD4680BC704700BF00ED00E080B400AFE8
:1007AC00044BDB681B0A03F007031846BD4680BCEC
:1007BC00704700BF00ED00E080B483B000AF03468B
:1007CC00FB7197F90730002B0BDBFB7903F01F0251
:1007DC00064997F907305B09012000FA02F241F84B
:1007EC00232000BF0C37BD4680BC704700E100E001
:1007FC0080B483B000AF03463960FB7197F90730C2
:10080C00002B0ADB3B68DAB20C4997F9073012016E
:10081C00D2B20B4483F800230AE03B68DAB20849F1
:10082C00FB7903F00F03043B1201D2B20B441A768E
:10083C0000BF0C37BD4680BC704700BF00E100E034
:10084C0000ED00E080B489B000AFF860B9607A6068
:10085C00FB6803F00703FB61FB69C3F10703042B7F
:10086C0028BF0423BB61FB690433062B02D9FB6947
:10087C00033B00E000237B614FF0FF32BB6902FABF
:10088C0003F3DA43BB681A407B699A404FF0FF319F
:10089C007B6901FA03F3D9437B680B401343184679
:1008AC002437BD4680BC704780B582B000AF7860FD
:1008BC007B68013BB3F1807F01D301230FE00A4A2F
:1008CC007B68013B53600F214FF0FF30FFF790FF27
:1008DC00054B00229A60044B07221A60002318462D
:1008EC000837BD4680BD00BF10E000E080B582B087
:1008FC0000AF78607868FFF72DFF00BF0837BD4662
:10090C0080BD80B586B000AF0346B9607A60FB73DA
:10091C0000237B61FFF742FF78617A68B9687869D8
:10092C00FFF790FF024697F90F3011461846FFF774
:10093C005FFF00BF1837BD4680BD80B582B000AFE9
:10094C000346FB7197F907301846FFF735FF00BFD8
:10095C000837BD4680BD80B582B000AF786078683E
:10096C00FFF7A2FF034618460837BD4680BD0000BE
:10097C0080B584B000AF78600023FB737B6893F87C
:10098C002130022B05D07B6804229A630123FB7370
:10099C0051E07B681B681A687B681B6822F00E02AA
:1009AC001A607B681B681A687B681B6822F001025E
:1009BC001A607B681B68224A934229D07B681B68AB
:1009CC00204A934222D07B681B681F4A93421AD05C
:1009DC007B681B681D4A934212D07B681B681C4ABB
:1009EC0093420AD07B681B681A4A934202D14FF497
:1009FC0080130EE04FF080730BE04FF4803308E06F
:100A0C004FF4805305E04FF4807302E0102300E0B4
:100A1C000123114A53607B68012283F821207B68F3
:100A2C00002283F820207B685B6B002B03D07B6853
:100A3C005B6B78689847FB7B18461037BD4680BDCA
:100A4C00080002401C0002403000024044000240FA
:100A5C00580002406C0002400000024080B48BB091
:100A6C0000AF7860396000237B6200233B6261E158
:100A7C0001227B6A02FA03F3FB613B681B68FA698B
:100A8C001340BB61BA69FB699A4240F050813B68E4
:100A9C005B68974A93425ED0954A934275D8954AC3
:100AAC00934258D0934A93426FD8934A934252D070
:100ABC00914A934269D8914A93424CD08F4A9342BF
:100ACC0063D88F4A934246D08D4A93425DD8122BFD
:100ADC002AD8122B59D801A252F823F0630B000824
:100AEC003D0B00084F0B0008910B0008970B0008FA
:100AFC00970B0008970B0008970B0008970B000842
:100B0C00970B0008970B0008970B0008970B000831
:100B1C00970B0008970B0008970B0008970B000821
:100B2C00450B0008590B0008764A934213D02CE071
:100B3C003B68DB683B6229E03B68DB6804333B6263
:100B4C0024E03B68DB6808333B621FE03B68DB68F2
:100B5C000C333B621AE03B689B68002B02D10423E8
:100B6C003B6213E03B689B68012B05D108233B6279
:100B7C007B68FA691A6109E008233B627B68FA69B1
:100B8C005A6103E000233B6200E000BFBB69FF2B0E
:100B9C0001D87B6801E07B6804337B61BB69FF2B68
:100BAC0002D87B6A9B0002E07B6A083B9B003B619E
:100BBC007B691A680F213B6901FA03F3DB431A4086
:100BCC00396A3B6901FA03F31A437B691A603B6883
:100BDC005B6803F08053002B00F0A9804A4B9B69A3
:100BEC00494A43F001039361474B9B6903F00103AE
:100BFC00BB60BB68454A7B6A9B08023352F82330C2
:100C0C00FB607B6A03F003039B000F2202FA03F3E1
:100C1C00DB43FA681340FB607B683D4A93420DD07E
:100C2C007B683C4A934207D07B683B4A934201D194
:100C3C00022304E0032302E0012300E000237A6A8C
:100C4C0002F0030292009340FA681343FB602F49B1
:100C5C007B6A9B080233FA6841F823203B685B6887
:100C6C0003F48033002B06D02C4B1A682B49BB693C
:100C7C0013430B6006E0294B1A68BB69DB43274919
:100C8C0013400B603B685B6803F40033002B06D009
:100C9C00224B5A682149BB6913434B6006E01F4B3A
:100CAC005A68BB69DB431D4913404B603B685B686A
:100CBC0003F48013002B06D0184B9A681749BB69B4
:100CCC0013438B6006E0154B9A68BB69DB431349F1
:100CDC0013408B603B685B6803F40013002B1FD040
:100CEC000E4BDA680D49BB691343CB601FE000BFA4
:100CFC000000321000003110000022100000211002
:100D0C000000121000001110001002400000014001
:100D1C0000080140000C014000100140000401409B
:100D2C000B4BDA68BB69DB4309491340CB607B6A28
:100D3C0001337B623B681A687B6A22FA03F3002B4F
:100D4C007FF496AE00BF00BF2C37BD4680BC704709
:100D5C000004014080B483B000AF78600B467B8008
:100D6C0013467B707B78002B03D07A887B681A61E2
:100D7C0003E07B881A047B681A6100BF0C37BD4600
:100D8C0080BC704780B586B000AF78607B68002B64
:100D9C0001D1012372E27B681B6803F00103002B75
:100DAC0000F08780924B5B6803F00C03042B0CD093
:100DBC008F4B5B6803F00C03082B12D18C4B5B68D8
:100DCC0003F48033B3F5803F0BD1894B1B6803F4DC
:100DDC000033002B6CD07B685B68002B68D101233F
:100DEC004CE27B685B68B3F5803F06D1804B1B6897
:100DFC007F4A43F4803313602EE07B685B68002BE2
:100E0C000CD17B4B1B687A4A23F480331360784BEC
:100E1C001B68774A23F4802313601DE07B685B68B2
:100E2C00B3F5A02F0CD1724B1B68714A43F480238D
:100E3C0013606F4B1B686E4A43F4803313600BE0F6
:100E4C006B4B1B686A4A23F480331360684B1B6836
:100E5C00674A23F4802313607B685B68002B13D0F4
:100E6C00FFF74AFC386108E0FFF746FC02463B6995
:100E7C00D31A642B01D9032300E25D4B1B6803F4E6
:100E8C000033002BF0D014E0FFF736FC386108E09B
:100E9C00FFF732FC02463B69D31A642B01D90323BA
:100EAC00ECE1534B1B6803F40033002BF0D100E052
:100EBC0000BF7B681B6803F00203002B63D04C4B14
:100ECC005B6803F00C03002B0BD0494B5B6803F001
:100EDC000C03082B1CD1464B5B6803F48033002BAE
:100EEC0016D1434B1B6803F00203002B05D07B6823
:100EFC001B69012B01D00123C0E13D4B1B6823F082
:100F0C00F8027B685B69DB00394913430B603AE0FC
:100F1C007B681B69002B20D0364B01221A60FFF72F
:100F2C00EBFB386108E0FFF7E7FB02463B69D31A9D
:100F3C00022B01D90323A1E12D4B1B6803F0020303
:100F4C00002BF0D02A4B1B6823F0F8027B685B69FE
:100F5C00DB00274913430B6015E0264B00221A6077
:100F6C00FFF7CAFB386108E0FFF7C6FB02463B6996
:100F7C00D31A022B01D9032380E11D4B1B6803F00C
:100F8C000203002BF0D17B681B6803F00803002BD5
:100F9C003AD07B689B69002B19D0174B01221A6041
:100FAC00FFF7AAFB386108E0FFF7A6FB02463B6996
:100FBC00D31A022B01D9032360E10D4B5B6A03F0BA
:100FCC000203002BF0D0012000F0D8FA1CE00A4BF1
:100FDC0000221A60FFF790FB38610FE0FFF78CFBE3
:100FEC0002463B69D31A022B08D9032346E100BF02
:100FFC00001002400000424280044242924B5B6A65
:10100C0003F00203002BE9D17B681B6803F0040397
:10101C00002B00F0A6800023FB758B4BDB6903F0E3
:10102C008053002B0DD1884BDB69874A43F08053EA
:10103C00D361854BDB6903F08053BB60BB68012334
:10104C00FB75824B1B6803F48073002B18D17F4B0C
:10105C001B687E4A43F480731360FFF74DFB3861C5
:10106C0008E0FFF749FB02463B69D31A642B01D910
:10107C00032303E1754B1B6803F48073002BF0D042
:10108C007B68DB68012B06D16F4B1B6A6E4A43F001
:10109C00010313622DE07B68DB68002B0CD16A4BDB
:1010AC001B6A694A23F001031362674B1B6A664A89
:1010BC0023F0040313621CE07B68DB68052B0CD166
:1010CC00614B1B6A604A43F0040313625E4B1B6A5C
:1010DC005D4A43F0010313620BE05B4B1B6A5A4AF7
:1010EC0023F001031362584B1B6A574A23F0040385
:1010FC0013627B68DB68002B15D0FFF7FDFA3861B3
:10110C000AE0FFF7F9FA02463B69D31A41F288323A
:10111C00934201D90323B1E04B4B1B6A03F002034A
:10112C00002BEED014E0FFF7E7FA38610AE0FFF786
:10113C00E3FA02463B69D31A41F28832934201D951
:10114C0003239BE0404B1B6A03F00203002BEED100
:10115C00FB7D012B05D13C4BDB693B4A23F08053D3
:10116C00D3617B68DB69002B00F08780364B5B68B2
:10117C0003F00C03082B61D07B68DB69022B46D192
:10118C00334B00221A60FFF7B7FA386108E0FFF71B
:10119C00B3FA02463B69D31A022B01D903236DE043
:1011AC00294B1B6803F00073002BF0D17B681B6A82
:1011BC00B3F5803F08D1244B5B6823F400327B6885
:1011CC009B68214913434B601F4B5B6823F47412DB
:1011DC007B68196A7B685B6A0B431B4913434B6042
:1011EC001B4B01221A60FFF787FA386108E0FFF702
:1011FC0083FA02463B69D31A022B01D903233DE043
:10120C00114B1B6803F00073002BF0D035E0104B32
:10121C0000221A60FFF770FA386108E0FFF76CFAE9
:10122C0002463B69D31A022B01D9032326E0064B55
:10123C001B6803F00073002BF0D11EE07B68DB69A8
:10124C00012B07D1012319E000100240007000406F
:10125C00600042420B4B5B68FB60FB6803F480321E
:10126C007B681B6A9A4206D1FB6803F470127B6898
:10127C005B6A9A4201D0012300E00023184618371C
:10128C00BD4680BD0010024080B584B000AF7860D0
:10129C0039607B68002B01D10123D0E06A4B1B68BD
:1012AC0003F007033A689A4210D9674B1B6823F086
:1012BC00070265493B6813430B60634B1B6803F0E3
:1012CC0007033A689A4201D00123B8E07B681B6897
:1012DC0003F00203002B20D07B681B6803F004038F
:1012EC00002B05D0594B5B68584A43F4E0635360BC
:1012FC007B681B6803F00803002B05D0534B5B681D
:10130C00524A43F460535360504B5B6823F0F00235
:10131C007B689B684D4913434B607B681B6803F0EB
:10132C000103002B40D07B685B68012B07D1474B36
:10133C001B6803F40033002B15D101237FE07B687D
:10134C005B68022B07D1414B1B6803F00073002B29
:10135C0009D1012373E03D4B1B6803F00203002B02
:10136C0001D101236BE0394B5B6823F003027B68EE
:10137C005B68364913434B60FFF7BEF9F8600AE02F
:10138C00FFF7BAF90246FB68D31A41F2883293424E
:10139C0001D9032353E02D4B5B6803F00C027B68EF
:1013AC005B689B009A42EBD1274B1B6803F0070349
:1013BC003A689A4210D2244B1B6823F00702224948
:1013CC003B6813430B60204B1B6803F007033A6820
:1013DC009A4201D0012332E07B681B6803F00403BE
:1013EC00002B08D0194B5B6823F4E0627B68DB6848
:1013FC00164913434B607B681B6803F00803002BF2
:10140C0009D0124B5B6823F460527B681B69DB00CC
:10141C000E4913434B6000F021F802460B4B5B68FE
:10142C001B0903F00F030A49CB5C22FA03F3094AA8
:10143C001360094B1B681846FFF71CF9002318466C
:10144C001037BD4680BD00BF002002400010024096
:10145C0054200008000000200400002090B48AB042
:10146C0000AF294B3C1D0FCB84E80F0040F2012349
:10147C003B800023FB610023BB6100237B620023C4
:10148C007B6100233B62214B5B68FB61FB6903F0D2
:10149C000C03042B02D0082B03D02BE01C4B3B621B
:1014AC002BE0FB699B0C03F00F0328333B4413F830
:1014BC00243C7B61FB6903F48033002B12D0134B6B
:1014CC005B685B0C03F0010328333B4413F8283CA6
:1014DC00BB617B690E4A03FB02F2BB69B2FBF3F3FF
:1014EC007B6204E07B690B4A02FB03F37B627B6A41
:1014FC003B6202E0064B3B6200BF3B6A1846283752
:10150C00BD4690BC704700BF44200008001002404C
:10151C0000127A0000093D0080B400AF024B1B683A
:10152C001846BD4680BC70470000002080B500AF57
:10153C00FFF7F2FF0246054B5B681B0A03F007033B
:10154C000349CB5C22FA03F3184680BD001002401D
:10155C006420000880B500AFFFF7DEFF0246054BA4
:10156C005B68DB0A03F007030349CB5C22FA03F345
:10157C00184680BD001002406420000880B485B07D
:10158C0000AF78600A4B1B680A4AA2FB03235B0A74
:10159C007A6802FB03F3FB6000BFFB685A1EFA601B
:1015AC00002BF9D100BF00BF1437BD4680BC70477B
:1015BC0000000020D34D621080B582B000AF78607F
:1015CC007B68002B01D101233FE07B6893F8393015
:1015DC00DBB2002B06D17B68002283F838207868B8
:1015EC00FEF750FF7B68242283F839207B681B6848
:1015FC00DA687B681B6822F40052DA60786800F0C5
:10160C00E5FB7B681B681A697B681B6822F49042B7
:10161C001A617B681B685A697B681B6822F02A0276
:10162C005A617B681B68DA687B681B6842F400525D
:10163C00DA607B680022DA637B68202283F8392029
:10164C007B68202283F83A20002318460837BD46D1
:10165C0080BD80B588B002AFF860B9603B601346BE
:10166C00FB8000237B61FB6893F83930DBB2202BC5
:10167C0040F08380BB68002B02D0FB88002B01D18B
:10168C0001237BE0FB6893F83830012B01D1022356
:10169C0074E0FB68012283F83820FB680022DA63CF
:1016AC00FB68212283F83920FFF726F87861FB6864
:1016BC00FA889A84FB68FA88DA8442E0FB68DB8C4F
:1016CC009BB2013B9AB2FB68DA84FB689B68B3F56A
:1016DC00805F22D13B6800937B6900228021F868EF
:1016EC0000F00BFA0346002B01D0032346E0BB6845
:1016FC003B613B691B881A46FB681B68C2F30802F6
:10170C005A60FB681B69002B03D1BB680233BB60BA
:10171C0017E0BB680133BB6013E03B6800937B6947
:10172C0000228021F86800F0E8F90346002B01D074
:10173C00032323E0BB685A1CBA601A78FB681B6849
:10174C005A60FB68DB8C9BB2002BB7D13B680093D3
:10175C007B6900224021F86800F0CFF90346002B8A
:10176C0001D003230AE0FB68202283F83920FB68B0
:10177C00002283F83820002300E002231846183793
:10178C00BD4680BD80B588B002AFF860B9603B60E3
:10179C001346FB8000237B61FB6893F83A30DBB285
:1017AC00202B40F09080BB68002B02D0FB88002BD4
:1017BC0001D1012388E0FB6893F83830012B01D16B
:1017CC00022381E0FB68012283F83820FB680022A9
:1017DC00DA63FB68222283F83A20FEF78DFF7861EA
:1017EC00FB68FA889A85FB68FA88DA855CE0FB6806
:1017FC00DB8D9BB2013B9AB2FB68DA85FB689B6878
:10180C00B3F5805F2BD13B6800937B6900222021CC
:10181C00F86800F072F90346002B01D0032353E063
:10182C00BB683B61FB681B69002B0CD1FB681B6818
:10183C005B689BB2C3F308039AB23B691A80BB681E
:10184C000233BB6030E0FB681B685B689BB2DBB2A9
:10185C009AB23B691A80BB680133BB6024E03B68D9
:10186C0000937B6900222021F86800F046F90346BA
:10187C00002B01D0032327E0FB681B69002B08D148
:10188C00FB681B685968BB685A1CBA60CAB21A70EC
:10189C000AE0FB681B685B68DAB2BB68591CB9606C
:1018AC0002F07F02D2B21A70FB68DB8D9BB2002B68
:1018BC009DD1FB68202283F83A20FB68002283F834
:1018CC003820002300E0022318461837BD4680BD9F
:1018DC0080B588B000AF78607B681B681B68FB61C3
:1018EC007B681B68DB68BB617B681B685B697B6121
:1018FC0000233B610023FB60FB6903F00F033B619A
:10190C003B69002B0DD1FB6903F02003002B08D0A1
:10191C00BB6903F02003002B03D0786800F0D5F9E5
:10192C00CBE03B69002B00F0AB807B6903F001033B
:10193C00002B05D1BB6903F49073002B00F0A08041
:10194C00FB6903F00103002B0AD0BB6903F480731D
:10195C00002B05D07B68DB6B43F001027B68DA63FC
:10196C00FB6903F00403002B0AD07B6903F001032D
:10197C00002B05D07B68DB6B43F002027B68DA63DB
:10198C00FB6903F00203002B0AD07B6903F001030F
:10199C00002B05D07B68DB6B43F004027B68DA63B9
:1019AC00FB6903F00803002B0AD07B6903F00103E9
:1019BC00002B05D07B68DB6B43F008027B68DA6395
:1019CC007B68DB6B002B77D0FB6903F02003002BCB
:1019DC0007D0BB6903F02003002B02D0786800F01D
:1019EC0074F97B681B685B6903F04003002B14BF20
:1019FC0001230023DBB2FB607B68DB6B03F0080385
:101A0C00002B02D1FB68002B31D0786800F0BFF8B6
:101A1C007B681B685B6903F04003002B23D07B6859
:101A2C001B685A697B681B6822F040025A617B680C
:101A3C005B6B002B13D07B685B6B214A5A637B6812
:101A4C005B6B1846FEF794FF0346002B16D07B68A1
:101A5C005B6B5B6B7A68526B104698470EE078684C
:101A6C0000F042F80AE0786800F03EF806E078688A
:101A7C0000F03AF87B680022DA631DE000BF1BE03F
:101A8C00FB6903F08003002B08D0BB6903F08003D3
:101A9C00002B03D0786800F0ABF80EE0FB6903F084
:101AAC004003002B09D0BB6903F04003002B04D08A
:101ABC00786800F0F2F800E000BF2037BD4680BD2A
:101ACC00D51B000880B483B000AF786000BF0C3722
:101ADC00BD4680BC704780B483B000AF786000BF57
:101AEC000C37BD4680BC704780B483B000AF7860C3
:101AFC0000BF0C37BD4680BC704780B584B000AFCA
:101B0C00F860B9603B601346FB712CE0BB69B3F124
:101B1C00FF3F28D0BB69002B07D0FEF7EDFD024636
:101B2C003B68D31ABA699A421DD2FB681B68DA6803
:101B3C00FB681B6822F4D072DA60FB681B685A6978
:101B4C00FB681B6822F001025A61FB68202283F8B3
:101B5C003920FB68202283F83A20FB68002283F8A6
:101B6C00382003230FE0FB681B681A68BB6813401E
:101B7C00BA689A420CBF01230023DBB21A46FB79E8
:101B8C009A42C3D0002318461037BD4680BD80B49E
:101B9C0083B000AF78607B681B68DA687B681B6871
:101BAC0022F49072DA607B681B685A697B681B6848
:101BBC0022F001025A617B68202283F83A2000BF90
:101BCC000C37BD4680BC704780B584B000AF7860E0
:101BDC007B685B6AFB60FB680022DA85FB6800228D
:101BEC00DA84F868FFF780FF00BF1037BD4680BD70
:101BFC0080B485B000AF78607B6893F83930DBB285
:101C0C00212B44D17B689B68B3F5805F1AD17B682C
:101C1C001B6AFB60FB681B881A467B681B68C2F357
:101C2C0008025A607B681B69002B05D17B681B6A14
:101C3C009A1C7B681A620EE07B681B6A5A1C7B68D4
:101C4C001A6208E07B681B6A591C7A6811621A7860
:101C5C007B681B685A607B68DB8C9BB2013B9BB238
:101C6C007A681946D184002B0FD17B681B68DA681F
:101C7C007B681B6822F08002DA607B681B68DA687C
:101C8C007B681B6842F04002DA60002300E002230C
:101C9C0018461437BD4680BC704780B582B000AF83
:101CAC0078607B681B68DA687B681B6822F04002EE
:101CBC00DA607B68202283F839207868FFF702FF0E
:101CCC00002318460837BD4680BD80B584B000AFF0
:101CDC0078607B6893F83A30DBB2222B71D17B6849
:101CEC009B68B3F5805F23D17B689B6AFB607B6844
:101CFC001B69002B0ED17B681B685B689BB2C3F31E
:101D0C0008039AB2FB681A807B689B6A9A1C7B68F2
:101D1C009A6229E07B681B685B689BB2DBB29AB263
:101D2C00FB681A807B689B6A5A1C7B689A621BE072
:101D3C007B681B69002B0AD17B681B6858687B6821
:101D4C009B6A591C7A689162C2B21A700CE07B686B
:101D5C001B685B68DAB27B689B6A581C796888627E
:101D6C0002F07F02D2B21A707B68DB8D9BB2013B12
:101D7C009BB27A681946D185002B20D17B681B68F1
:101D8C00DA687B681B6822F02002DA607B681B68CB
:101D9C00DA687B681B6822F48072DA607B681B68E7
:101DAC005A697B681B6822F001025A617B68202209
:101DBC0083F83A207868FFF78EFE002302E00023B8
:101DCC0000E0022318461037BD4680BD80B584B0B4
:101DDC0000AF78607B681B681B6923F440517B68FB
:101DEC00DA687B681B680A431A617B689A687B68AF
:101DFC001B691A437B685B691343FB607B681B6838
:101E0C00DB6823F4B05323F00C037A681268F9688A
:101E1C000B43D3607B681B685B6923F440717B6860
:101E2C009A697B681B680A435A617B681B68524A33
:101E3C0093424ED1FFF78EFBB860BA6813469B00F5
:101E4C0013449A001A447B685B689B00B2FBF3F363
:101E5C004A4AA2FB03235B091901BA6813469B008B
:101E6C0013449A001A447B685B689B00B2FBF3F244
:101E7C00424BA3FB02035B09642000FB03F3D31A60
:101E8C001B0132333D4AA2FB03235B0903F0F00331
:101E9C001944BA6813469B0013449A001A447B6891
:101EAC005B689B00B2FBF3F2344BA3FB02035B09B0
:101EBC00642000FB03F3D31A1B0132332F4AA2FB1D
:101ECC0003235B0903F00F027B681B680A449A60CA
:101EDC004DE0FFF72BFBB860BA6813469B00134428
:101EEC009A001A447B685B689B00B2FBF3F3234AAD
:101EFC00A2FB03235B091901BA6813469B00134428
:101F0C009A001A447B685B689B00B2FBF3F21B4B94
:101F1C00A3FB02035B09642000FB03F3D31A1B0130
:101F2C003233164AA2FB03235B0903F0F003194476
:101F3C00BA6813469B0013449A001A447B685B688A
:101F4C009B00B2FBF3F20D4BA3FB02035B09642075
:101F5C0000FB03F3D31A1B013233084AA2FB032301
:101F6C005B0903F00F027B681B680A449A6000BF90
:101F7C001037BD4680BD00BF003801401F85EB51B6
:101F8C0003460244934200D1704703F8011BF9E762
:101F9C0070B500260C4D0D4C641BA410A64209D143
:101FAC0000F01AF800260A4D0A4C641BA410A64235
:101FBC0005D170BD55F8043B98470136EEE755F84E
:101FCC00043B98470136F2E76C2000086C200008AF
:101FDC006C20000870200008F8B500BFF8BC08BCE5
:101FEC009E467047F8B500BFF8BC08BC9E467047CB
:101FFC005369676E616C206F662074686520636836
:10200C00617261637465723A200000003100000057
:10201C00300000000D0A0D0A00000000456E7465CA
:10202C007220796F75722063686172616374657276
:10203C003A2000000D0A00000203040506070809F7
:10204C000A0B0C0D0E0F1010000000000000000019
:10205C000102030406070809000000000102030442
:04206C003101000836
:042070000D01000856
:0C2074000024F400100000000100000037
:0400000508000609E0
:00000001FF
