:020000040800F2
:1000000000180020DD060008F905000801060008B8
:100010000906000811060008190600080000000083
:1000200000000000000000000000000021060008A1
:100030002D060008000000003906000845060008EB
:1000400025070008250700082507000825070008E0
:1000500025070008250700085106000825070008A5
:1000600025070008250700082507000825070008C0
:1000700025070008250700082507000825070008B0
:1000800025070008250700082507000825070008A0
:100090002507000825070008250700082507000890
:1000A0002507000825070008250700082507000880
:1000B00025070008250700080000000025070008A4
:1000C00025070008000000000000000025070008C8
:1000D000000000002507000861060008000000007D
:1000E0002507000825070008250700080000000074
:1000F0000000000000000000000000000000000000
:0C01000000000000000000005FF808F1A3
:10010C0010B5054C237833B9044B13B10448AFF345
:10011C0000800123237010BD180000200000000097
:10012C00241F000808B5034B1BB103490348AFF368
:10013C00008008BD000000001C000020241F0008E7
:10014C0090B585B000AF6446C7F804C04FF0FF33DC
:10015C0019224249424801F0C2FA0023FB60414B8C
:10016C001B685A1C404B1B689A42F8D100F02EFBBE
:10017C0003463E4A12689B1A323B1A463C4B1A60A5
:10018C0000F024FB03461A46384B1A60354B1B68AB
:10019C000133344A1360344B1B68002BDFDD344BC6
:1001AC001B68822B12DD324B1B68A92B0EDC4FF027
:1001BC00FF3301222F492A4801F091FA2A4B1B6880
:1001CC00013B2D4A012142F8231015E0284B1B68F6
:1001DC001E2B11DD264B1B68452B0DDC4FF0FF331E
:1001EC00012226491E4801F07AFA1F4B1B68013B7D
:1001FC00214A002142F823101B4B1B68082B24D1E9
:10020C004FF0FF3302221E49154801F068FA002313
:10021C00FB600023BB600AE0FB685A001649BB6810
:10022C0051F823301344FB60BB680133BB60BB68DF
:10023C00072BF1DDFB68DBB22370124B00221A6036
:10024C00114B00221A60237803E00F4B00221A6036
:10025C0085E718461437BD4690BD00BF3C1F00080B
:10026C00640000200000002008000020380000205E
:10027C003C000020581F0008440000205C1F0008B0
:10028C00601F0008340000204000002080B582B0C0
:10029C0000AF07F110037B6000F040FA00F082F829
:1002AC0000F0E6F800F0BAF830233B700F4B1B68F7
:1002BC00012BFBD13B469C46FFF742FF03463B70AC
:1002CC004FF0FF3314220A490A4801F008FA394664
:1002DC004FF0FF330122074801F001FA4FF0FF33D2
:1002EC0004220549034801F0FAF9DFE73400002045
:1002FC00641F0008640000207C1F000880B483B0D9
:10030C0000AF0346FB80FB88012B3BD1204B1B68C5
:10031C00012B03D11E4B00221A6002E01C4B012260
:10032C001A601C4B1B68B3F1FF3F08D11A4B01221A
:10033C001A60184B1B680133164A136022E0154BE8
:10034C001B68082B12D1124B1B68012B0ED1104BC2
:10035C0001221A600F4B4FF0FF321A600F4B4FF017
:10036C00FF321A600C4B00221A600BE0084B1B6822
:10037C00012B07D00A4B01221A60064B1B68013374
:10038C00044A136000BF0C37BD4680BC704700BFE9
:10039C000400002008000020340000200000002091
:1003AC004000002080B590B000AF07F11803282260
:1003BC000021184601F084FD3B1D00221A605A6092
:1003CC009A60DA601A610223BB610123BB621023BD
:1003DC00FB6200237B6307F11803184600F018FD3D
:1003EC000346002B01D000F077F80F237B6000232D
:1003FC00BB600023FB6000233B6100237B613B1D42
:10040C000021184600F086FF0346002B01D000F0B7
:10041C0063F800BF4037BD4680BD000080B500AF1B
:10042C00114B124A1A60104B4FF4E1325A600E4BCA
:10043C0000229A600C4B0022DA600B4B00221A61EE
:10044C00094B0C225A61084B00229A61064B002280
:10045C00DA61054801F0F6F80346002B01D000F0F4
:10046C003BF800BF80BD00BF64000020004400408A
:10047C0080B586B000AF07F1080300221A605A60FD
:10048C009A60DA60114B9B69104A43F00403936144
:10049C000E4B9B6903F004037B607B680123BB60FC
:1004AC000B4BFB6001233B6107F10803194609481C
:1004BC0000F01AFB00220021062000F068FA06204A
:1004CC0000F081FA00BF1837BD4680BD0010024015
:1004DC00000031100008014080B400AF72B600BFBC
:1004EC0000BFFDE780B485B000AF154B9B69144A83
:1004FC0043F001039361124B9B6903F00103BB6052
:10050C00BB680F4BDB690E4A43F08053D3610C4B35
:10051C00DB6903F080537B607B680A4B5B68FB6094
:10052C00FB6823F0E063FB60FB6843F08063FB60D7
:10053C00044AFB68536000BF1437BD4680BC70474B
:10054C00001002400000014080B588B000AF786018
:10055C0007F1100300221A605A609A60DA607B6817
:10056C001B681F4A934237D11E4BDB691D4A43F46B
:10057C000033D3611B4BDB6903F40033FB60FB6876
:10058C00184B9B69174A43F004039361154B9B6905
:10059C0003F00403BB60BB6804233B6102237B6153
:1005AC000323FB6107F1100319460F4800F09CFA76
:1005BC0008233B6100237B610023BB6107F110031F
:1005CC001946094800F090FA00220021262000F07C
:1005DC00DEF9262000F0F7F900BF2037BD4680BDBC
:1005EC0000440040001002400008014080B400AFFD
:1005FC0000BFFDE780B400AF00BFFDE780B400AFE3
:10060C0000BFFDE780B400AF00BFFDE780B400AFD2
:10061C0000BFFDE780B400AF00BFBD4680BC704793
:10062C0080B400AF00BFBD4680BC704780B400AF43
:10063C0000BFBD4680BC704780B500AF00F0B4F879
:10064C0000BF80BD80B500AF012000F0C9FB00BF2A
:10065C0080BD000080B500AF024801F0D9F800BFA2
:10066C0080BD00BF6400002080B400AF154B1B6838
:10067C00144A43F001031360124B5A681149124B90
:10068C0013404B600F4B1B680E4A23F0847323F40A
:10069C00803313600B4B1B680A4A23F480231360CE
:1006AC00084B5B68074A23F4FE035360054B4FF479
:1006BC001F029A60054B4FF000629A6000BFBD4666
:1006CC0080BC7047001002400000FFF800ED00E015
:1006DC00002103E00B4B5B58435004310A480B4B91
:1006EC0042189A42F6D30A4A02E0002342F8043B2D
:1006FC00084B9A42F9D3FFF7B7FF01F0E9FBFFF77C
:10070C00C5FD7047B41F0008000000201800002031
:10071C0018000020A8000020FEE7000080B500AF04
:10072C00084B1B68074A43F010031360032000F0CA
:10073C0023F90F2000F008F8FFF7D4FE0023184629
:10074C0080BD00BF0020024080B582B000AF786051
:10075C00124B1A68124B1B7819464FF47A73B3FB81
:10076C00F1F3B2FBF3F3184600F03BF90346002B10
:10077C0001D001230EE07B680F2B0AD80022796888
:10078C004FF0FF3000F003F9064A7B68136000233A
:10079C0000E0012318460837BD4680BD0C00002040
:1007AC00140000201000002080B400AF054B1B7813
:1007BC001A46054B1B681344034A136000BFBD4621
:1007CC0080BC704714000020A400002080B400AF4F
:1007DC00024B1B681846BD4680BC7047A400002025
:1007EC0080B485B000AF78607B6803F00703FB60D2
:1007FC000C4BDB68BB60BA684FF6FF031340BB6061
:10080C00FB681A02BB68134343F0BF6343F4003325
:10081C00BB60044ABB68D36000BF1437BD4680BCC4
:10082C00704700BF00ED00E080B400AF044BDB6804
:10083C001B0A03F007031846BD4680BC704700BF77
:10084C0000ED00E080B483B000AF0346FB7197F974
:10085C000730002B0BDBFB7903F01F02064997F9DD
:10086C0007305B09012000FA02F241F8232000BF97
:10087C000C37BD4680BC704700E100E080B483B00B
:10088C0000AF03463960FB7197F90730002B0ADB88
:10089C003B68DAB20C4997F907301201D2B20B441B
:1008AC0083F800230AE03B68DAB20849FB7903F0CD
:1008BC000F03043B1201D2B20B441A7600BF0C3763
:1008CC00BD4680BC704700BF00E100E000ED00E0D9
:1008DC0080B489B000AFF860B9607A60FB6803F04F
:1008EC000703FB61FB69C3F10703042B28BF042337
:1008FC00BB61FB690433062B02D9FB69033B00E0A7
:10090C0000237B614FF0FF32BB6902FA03F3DA4339
:10091C00BB681A407B699A404FF0FF317B6901FA42
:10092C0003F3D9437B680B40134318462437BD4669
:10093C0080BC704780B582B000AF78607B68013BAB
:10094C00B3F1807F01D301230FE00A4A7B68013B9E
:10095C0053600F214FF0FF30FFF790FF054B002243
:10096C009A60044B07221A60002318460837BD46CC
:10097C0080BD00BF10E000E080B582B000AF7860B1
:10098C007868FFF72DFF00BF0837BD4680BD80B5E6
:10099C0086B000AF0346B9607A60FB7300237B61BD
:1009AC00FFF742FF78617A68B9687869FFF790FFC2
:1009BC00024697F90F3011461846FFF75FFF00BF4C
:1009CC001837BD4680BD80B582B000AF0346FB71C1
:1009DC0097F907301846FFF735FF00BF0837BD46BB
:1009EC0080BD80B582B000AF78607868FFF7A2FF59
:1009FC00034618460837BD4680BD000080B584B05C
:100A0C0000AF78600023FB737B6893F82130022BD6
:100A1C0005D07B6804229A630123FB7351E07B6849
:100A2C001B681A687B681B6822F00E021A607B68D0
:100A3C001B681A687B681B6822F001021A607B68CD
:100A4C001B68224A934229D07B681B68204A934238
:100A5C0022D07B681B681F4A93421AD07B681B68A4
:100A6C001D4A934212D07B681B681C4A93420AD0E1
:100A7C007B681B681A4A934202D14FF480130EE034
:100A8C004FF080730BE04FF4803308E04FF4805349
:100A9C0005E04FF4807302E0102300E00123114ABB
:100AAC0053607B68012283F821207B68002283F845
:100ABC0020207B685B6B002B03D07B685B6B7868BA
:100ACC009847FB7B18461037BD4680BD0800024096
:100ADC001C0002403000024044000240580002401A
:100AEC006C0002400000024080B48BB000AF786014
:100AFC00396000237B6200233B6261E101227B6A47
:100B0C0002FA03F3FB613B681B68FA691340BB6193
:100B1C00BA69FB699A4240F050813B685B68974A1E
:100B2C0093425ED0954A934275D8954A934258D0D9
:100B3C00934A93426FD8934A934252D0914A93422C
:100B4C0069D8914A93424CD08F4A934263D88F4ACA
:100B5C00934246D08D4A93425DD8122B2AD8122B41
:100B6C0059D801A252F823F0EF0B0008C90B00086A
:100B7C00DB0B00081D0C0008230C0008230C0008DC
:100B8C00230C0008230C0008230C0008230C00087D
:100B9C00230C0008230C0008230C0008230C00086D
:100BAC00230C0008230C0008230C0008D10B0008B0
:100BBC00E50B0008764A934213D02CE03B68DB68C7
:100BCC003B6229E03B68DB6804333B6224E03B6812
:100BDC00DB6808333B621FE03B68DB680C333B622D
:100BEC001AE03B689B68002B02D104233B6213E0A4
:100BFC003B689B68012B05D108233B627B68FA6933
:100C0C001A6109E008233B627B68FA695A6103E0C8
:100C1C0000233B6200E000BFBB69FF2B01D87B685F
:100C2C0001E07B6804337B61BB69FF2B02D87B6AD4
:100C3C009B0002E07B6A083B9B003B617B691A6866
:100C4C000F213B6901FA03F3DB431A40396A3B6914
:100C5C0001FA03F31A437B691A603B685B6803F083
:100C6C008053002B00F0A9804A4B9B69494A43F002
:100C7C0001039361474B9B6903F00103BB60BB68A5
:100C8C00454A7B6A9B08023352F82330FB607B6A2F
:100C9C0003F003039B000F2202FA03F3DB43FA6811
:100CAC001340FB607B683D4A93420DD07B683C4A05
:100CBC00934207D07B683B4A934201D1022304E064
:100CCC00032302E0012300E000237A6A02F003020E
:100CDC0092009340FA681343FB602F497B6A9B0890
:100CEC000233FA6841F823203B685B6803F48033D5
:100CFC00002B06D02C4B1A682B49BB6913430B6095
:100D0C0006E0294B1A68BB69DB43274913400B608B
:100D1C003B685B6803F40033002B06D0224B5A6807
:100D2C002149BB6913434B6006E01F4B5A68BB69F2
:100D3C00DB431D4913404B603B685B6803F4801335
:100D4C00002B06D0184B9A681749BB6913438B606C
:100D5C0006E0154B9A68BB69DB43134913408B6063
:100D6C003B685B6803F40013002B1FD00E4BDA6852
:100D7C000D49BB691343CB601FE000BF000032106C
:100D8C000000311000002210000021100000121091
:100D9C00000011100010024000000140000801404A
:100DAC00000C014000100140000401400B4BDA68BC
:100DBC00BB69DB4309491340CB607B6A01337B621F
:100DCC003B681A687B6A22FA03F3002B7FF496AE19
:100DDC0000BF00BF2C37BD4680BC704700040140EB
:100DEC0080B582B000AF0346FB80084B5A69FB8884
:100DFC001340002B06D0054AFB885361FB8818462C
:100E0C00FFF77CFA00BF0837BD4680BD00040140E7
:100E1C0080B586B000AF78607B68002B01D10123D0
:100E2C0072E27B681B6803F00103002B00F08780E3
:100E3C00924B5B6803F00C03042B0CD08F4B5B685C
:100E4C0003F00C03082B12D18C4B5B6803F480333A
:100E5C00B3F5803F0BD1894B1B6803F40033002B97
:100E6C006CD07B685B68002B68D101234CE27B68FB
:100E7C005B68B3F5803F06D1804B1B687F4A43F417
:100E8C00803313602EE07B685B68002B0CD17B4BAE
:100E9C001B687A4A23F480331360784B1B68774ABB
:100EAC0023F4802313601DE07B685B68B3F5A02FEF
:100EBC000CD1724B1B68714A43F4802313606F4B47
:100ECC001B686E4A43F4803313600BE06B4B1B685A
:100EDC006A4A23F480331360684B1B68674A23F417
:100EEC00802313607B685B68002B13D0FFF76EFCCC
:100EFC00386108E0FFF76AFC02463B69D31A642BA1
:100F0C0001D9032300E25D4B1B6803F40033002B73
:100F1C00F0D014E0FFF75AFC386108E0FFF756FCFC
:100F2C0002463B69D31A642B01D90323ECE1534BE2
:100F3C001B6803F40033002BF0D100E000BF7B688A
:100F4C001B6803F00203002B63D04C4B5B6803F06F
:100F5C000C03002B0BD0494B5B6803F00C03082BE4
:100F6C001CD1464B5B6803F48033002B16D1434BEA
:100F7C001B6803F00203002B05D07B681B69012B57
:100F8C0001D00123C0E13D4B1B6823F0F8027B68C4
:100F9C005B69DB00394913430B603AE07B681B69E2
:100FAC00002B20D0364B01221A60FFF70FFC386162
:100FBC0008E0FFF70BFC02463B69D31A022B01D960
:100FCC000323A1E12D4B1B6803F00203002BF0D08F
:100FDC002A4B1B6823F0F8027B685B69DB0027490E
:100FEC0013430B6015E0264B00221A60FFF7EEFB53
:100FFC00386108E0FFF7EAFB02463B69D31A022B83
:10100C0001D9032380E11D4B1B6803F00203002B65
:10101C00F0D17B681B6803F00803002B3AD07B6887
:10102C009B69002B19D0174B01221A60FFF7CEFBDE
:10103C00386108E0FFF7CAFB02463B69D31A022B62
:10104C0001D9032360E10D4B5B6A03F00203002B13
:10105C00F0D0012000F0D8FA1CE00A4B00221A60F4
:10106C00FFF7B4FB38610FE0FFF7B0FB02463B69BA
:10107C00D31A022B08D9032346E100BF001002400B
:10108C000000424280044242924B5B6A03F002032E
:10109C00002BE9D17B681B6803F00403002B00F0E4
:1010AC00A6800023FB758B4BDB6903F08053002B70
:1010BC000DD1884BDB69874A43F08053D361854B54
:1010CC00DB6903F08053BB60BB680123FB75824B6B
:1010DC001B6803F48073002B18D17F4B1B687E4A6E
:1010EC0043F480731360FFF771FB386108E0FFF77E
:1010FC006DFB02463B69D31A642B01D9032303E130
:10110C00754B1B6803F48073002BF0D07B68DB6895
:10111C00012B06D16F4B1B6A6E4A43F0010313621D
:10112C002DE07B68DB68002B0CD16A4B1B6A694A8B
:10113C0023F001031362674B1B6A664A23F0040316
:10114C0013621CE07B68DB68052B0CD1614B1B6ABE
:10115C00604A43F0040313625E4B1B6A5D4A43F022
:10116C00010313620BE05B4B1B6A5A4A23F0010329
:10117C001362584B1B6A574A23F0040313627B68B3
:10118C00DB68002B15D0FFF721FB38610AE0FFF775
:10119C001DFB02463B69D31A41F28832934201D9B6
:1011AC000323B1E04B4B1B6A03F00203002BEED080
:1011BC0014E0FFF70BFB38610AE0FFF707FB024670
:1011CC003B69D31A41F28832934201D903239BE045
:1011DC00404B1B6A03F00203002BEED1FB7D012B6D
:1011EC0005D13C4BDB693B4A23F08053D3617B68D0
:1011FC00DB69002B00F08780364B5B6803F00C0337
:10120C00082B61D07B68DB69022B46D1334B002263
:10121C001A60FFF7DBFA386108E0FFF7D7FA0246ED
:10122C003B69D31A022B01D903236DE0294B1B68B0
:10123C0003F00073002BF0D17B681B6AB3F5803F81
:10124C0008D1244B5B6823F400327B689B682149EE
:10125C0013434B601F4B5B6823F474127B68196A51
:10126C007B685B6A0B431B4913434B601B4B01228E
:10127C001A60FFF7ABFA386108E0FFF7A7FA0246ED
:10128C003B69D31A022B01D903233DE0114B1B6898
:10129C0003F00073002BF0D035E0104B00221A60E5
:1012AC00FFF794FA386108E0FFF790FA02463B69C1
:1012BC00D31A022B01D9032326E0064B1B6803F03B
:1012CC000073002BF0D11EE07B68DB69012B07D18A
:1012DC00012319E0001002400070004060004242FF
:1012EC000B4B5B68FB60FB6803F480327B681B6A0A
:1012FC009A4206D1FB6803F470127B685B6A9A42CF
:10130C0001D0012300E0002318461837BD4680BDEC
:10131C000010024080B584B000AF786039607B6803
:10132C00002B01D10123D0E06A4B1B6803F00703AB
:10133C003A689A4210D9674B1B6823F0070265493B
:10134C003B6813430B60634B1B6803F007033A685D
:10135C009A4201D00123B8E07B681B6803F00203BA
:10136C00002B20D07B681B6803F00403002B05D0F6
:10137C00594B5B68584A43F4E06353607B681B68C5
:10138C0003F00803002B05D0534B5B68524A43F41F
:10139C0060535360504B5B6823F0F0027B689B6892
:1013AC004D4913434B607B681B6803F00103002B12
:1013BC0040D07B685B68012B07D1474B1B6803F45B
:1013CC000033002B15D101237FE07B685B68022B77
:1013DC0007D1414B1B6803F00073002B09D101238B
:1013EC0073E03D4B1B6803F00203002B01D101237A
:1013FC006BE0394B5B6823F003027B685B68364912
:10140C0013434B60FFF7E2F9F8600AE0FFF7DEF9EF
:10141C000246FB68D31A41F28832934201D9032366
:10142C0053E02D4B5B6803F00C027B685B689B0000
:10143C009A42EBD1274B1B6803F007033A689A4298
:10144C0010D2244B1B6823F0070222493B6813433C
:10145C000B60204B1B6803F007033A689A4201D0DB
:10146C00012332E07B681B6803F00403002B08D0D7
:10147C00194B5B6823F4E0627B68DB681649134305
:10148C004B607B681B6803F00803002B09D0124BE0
:10149C005B6823F460527B681B69DB000E491343C5
:1014AC004B6000F021F802460B4B5B681B0903F004
:1014BC000F030A49CB5C22FA03F3094A1360094B68
:1014CC001B681846FFF740F9002318461037BD4635
:1014DC0080BD00BF0020024000100240941F000895
:1014EC000C0000201000002090B48AB000AF294BF3
:1014FC003C1D0FCB84E80F0040F201233B800023FE
:10150C00FB610023BB6100237B6200237B61002312
:10151C003B62214B5B68FB61FB6903F00C03042B02
:10152C0002D0082B03D02BE01C4B3B622BE0FB6959
:10153C009B0C03F00F0328333B4413F8243C7B61D2
:10154C00FB6903F48033002B12D0134B5B685B0CEC
:10155C0003F0010328333B4413F8283CBB617B693F
:10156C000E4A03FB02F2BB69B2FBF3F37B6204E0AD
:10157C007B690B4A02FB03F37B627B6A3B6202E0F2
:10158C00064B3B6200BF3B6A18462837BD4690BCF1
:10159C00704700BF841F00080010024000127A0040
:1015AC0000093D0080B400AF024B1B681846BD46D5
:1015BC0080BC70470C00002080B500AFFFF7F2FF35
:1015CC000246054B5B681B0A03F007030349CB5C1F
:1015DC0022FA03F3184680BD00100240A41F000835
:1015EC0080B500AFFFF7DEFF0246054B5B68DB0AF8
:1015FC0003F007030349CB5C22FA03F3184680BDC2
:10160C0000100240A41F000880B485B000AF7860C1
:10161C000A4B1B680A4AA2FB03235B0A7A6802FB8B
:10162C0003F3FB6000BFFB685A1EFA60002BF9D174
:10163C0000BF00BF1437BD4680BC70470C000020B3
:10164C00D34D621080B582B000AF78607B68002B00
:10165C0001D101233FE07B6893F83930DBB2002BDA
:10166C0006D17B68002283F838207868FEF76CFF7F
:10167C007B68242283F839207B681B68DA687B68D6
:10168C001B6822F40052DA60786800F03FFB7B683C
:10169C001B681A697B681B6822F490421A617B688C
:1016AC001B685A697B681B6822F02A025A617B68A6
:1016BC001B68DA687B681B6842F40052DA607B684E
:1016CC000022DA637B68202283F839207B68202291
:1016DC0083F83A20002318460837BD4680BD80B5F4
:1016EC0088B002AFF860B9603B601346FB80002302
:1016FC007B61FB6893F83930DBB2202B40F08380A0
:10170C00BB68002B02D0FB88002B01D101237BE0AE
:10171C00FB6893F83830012B01D1022374E0FB688D
:10172C00012283F83820FB680022DA63FB6821224F
:10173C0083F83920FFF74AF87861FB68FA889A84B5
:10174C00FB68FA88DA8442E0FB68DB8C9BB2013BD5
:10175C009AB2FB68DA84FB689B68B3F5805F22D190
:10176C003B6800937B6900228021F86800F065F9E2
:10177C000346002B01D0032346E0BB683B613B6969
:10178C001B881A46FB681B68C2F308025A60FB6888
:10179C001B69002B03D1BB680233BB6017E0BB682D
:1017AC000133BB6013E03B6800937B69002280210E
:1017BC00F86800F042F90346002B01D0032323E024
:1017CC00BB685A1CBA601A78FB681B685A60FB68C5
:1017DC00DB8C9BB2002BB7D13B6800937B6900225A
:1017EC004021F86800F029F90346002B01D00323AF
:1017FC000AE0FB68202283F83920FB68002283F87A
:10180C003820002300E0022318461837BD4680BD5F
:10181C0080B588B000AF78607B681B681B68FB6183
:10182C007B681B68DB68BB617B681B685B697B61E1
:10183C0000233B610023FB60FB6903F00F033B615A
:10184C003B69002B0DD1FB6903F02003002B08D062
:10185C00BB6903F02003002B03D0786800F0D5F9A6
:10186C00CBE03B69002B00F0AB807B6903F00103FC
:10187C00002B05D1BB6903F49073002B00F0A08002
:10188C00FB6903F00103002B0AD0BB6903F48073DE
:10189C00002B05D07B68DB6B43F001027B68DA63BD
:1018AC00FB6903F00403002B0AD07B6903F00103EE
:1018BC00002B05D07B68DB6B43F002027B68DA639C
:1018CC00FB6903F00203002B0AD07B6903F00103D0
:1018DC00002B05D07B68DB6B43F004027B68DA637A
:1018EC00FB6903F00803002B0AD07B6903F00103AA
:1018FC00002B05D07B68DB6B43F008027B68DA6356
:10190C007B68DB6B002B77D0FB6903F02003002B8B
:10191C0007D0BB6903F02003002B02D0786800F0DD
:10192C0074F97B681B685B6903F04003002B14BFE0
:10193C0001230023DBB2FB607B68DB6B03F0080345
:10194C00002B02D1FB68002B31D0786800F0BFF877
:10195C007B681B685B6903F04003002B23D07B681A
:10196C001B685A697B681B6822F040025A617B68CD
:10197C005B6B002B13D07B685B6B214A5A637B68D3
:10198C005B6B1846FFF73AF80346002B16D07B68C2
:10199C005B6B5B6B7A68526B104698470EE078680D
:1019AC0000F042F80AE0786800F03EF806E078684B
:1019BC0000F03AF87B680022DA631DE000BF1BE000
:1019CC00FB6903F08003002B08D0BB6903F0800394
:1019DC00002B03D0786800F0ABF80EE0FB6903F045
:1019EC004003002B09D0BB6903F04003002B04D04B
:1019FC00786800F0F2F800E000BF2037BD4680BDEB
:101A0C00151B000880B483B000AF786000BF0C37A2
:101A1C00BD4680BC704780B483B000AF786000BF17
:101A2C000C37BD4680BC704780B483B000AF786083
:101A3C0000BF0C37BD4680BC704780B584B000AF8A
:101A4C00F860B9603B601346FB712CE0BB69B3F1E5
:101A5C00FF3F28D0BB69002B07D0FEF7B7FE02462C
:101A6C003B68D31ABA699A421DD2FB681B68DA68C4
:101A7C00FB681B6822F4D072DA60FB681B685A6939
:101A8C00FB681B6822F001025A61FB68202283F874
:101A9C003920FB68202283F83A20FB68002283F867
:101AAC00382003230FE0FB681B681A68BB681340DF
:101ABC00BA689A420CBF01230023DBB21A46FB79A9
:101ACC009A42C3D0002318461037BD4680BD80B45F
:101ADC0083B000AF78607B681B68DA687B681B6832
:101AEC0022F49072DA607B681B685A697B681B6809
:101AFC0022F001025A617B68202283F83A2000BF51
:101B0C000C37BD4680BC704780B584B000AF7860A0
:101B1C007B685B6AFB60FB680022DA85FB6800224D
:101B2C00DA84F868FFF780FF00BF1037BD4680BD30
:101B3C0080B485B000AF78607B6893F83930DBB245
:101B4C00212B44D17B689B68B3F5805F1AD17B68ED
:101B5C001B6AFB60FB681B881A467B681B68C2F318
:101B6C0008025A607B681B69002B05D17B681B6AD5
:101B7C009A1C7B681A620EE07B681B6A5A1C7B6895
:101B8C001A6208E07B681B6A591C7A6811621A7821
:101B9C007B681B685A607B68DB8C9BB2013B9BB2F9
:101BAC007A681946D184002B0FD17B681B68DA68E0
:101BBC007B681B6822F08002DA607B681B68DA683D
:101BCC007B681B6842F04002DA60002300E00223CD
:101BDC0018461437BD4680BC704780B582B000AF44
:101BEC0078607B681B68DA687B681B6822F04002AF
:101BFC00DA607B68202283F839207868FFF702FFCF
:101C0C00002318460837BD4680BD80B584B000AFB0
:101C1C0078607B6893F83A30DBB2222B71D17B6809
:101C2C009B68B3F5805F23D17B689B6AFB607B6804
:101C3C001B69002B0ED17B681B685B689BB2C3F3DE
:101C4C0008039AB2FB681A807B689B6A9A1C7B68B3
:101C5C009A6229E07B681B685B689BB2DBB29AB224
:101C6C00FB681A807B689B6A5A1C7B689A621BE033
:101C7C007B681B69002B0AD17B681B6858687B68E2
:101C8C009B6A591C7A689162C2B21A700CE07B682C
:101C9C001B685B68DAB27B689B6A581C796888623F
:101CAC0002F07F02D2B21A707B68DB8D9BB2013BD3
:101CBC009BB27A681946D185002B20D17B681B68B2
:101CCC00DA687B681B6822F02002DA607B681B688C
:101CDC00DA687B681B6822F48072DA607B681B68A8
:101CEC005A697B681B6822F001025A617B682022CA
:101CFC0083F83A207868FFF78EFE002302E0002379
:101D0C0000E0022318461037BD4680BD80B584B074
:101D1C0000AF78607B681B681B6923F440517B68BB
:101D2C00DA687B681B680A431A617B689A687B686F
:101D3C001B691A437B685B691343FB607B681B68F8
:101D4C00DB6823F4B05323F00C037A681268F9684B
:101D5C000B43D3607B681B685B6923F440717B6821
:101D6C009A697B681B680A435A617B681B68524AF4
:101D7C0093424ED1FFF734FCB860BA6813469B000F
:101D8C0013449A001A447B685B689B00B2FBF3F324
:101D9C004A4AA2FB03235B091901BA6813469B004C
:101DAC0013449A001A447B685B689B00B2FBF3F205
:101DBC00424BA3FB02035B09642000FB03F3D31A21
:101DCC001B0132333D4AA2FB03235B0903F0F003F2
:101DDC001944BA6813469B0013449A001A447B6852
:101DEC005B689B00B2FBF3F2344BA3FB02035B0971
:101DFC00642000FB03F3D31A1B0132332F4AA2FBDE
:101E0C0003235B0903F00F027B681B680A449A608A
:101E1C004DE0FFF7D1FBB860BA6813469B00134442
:101E2C009A001A447B685B689B00B2FBF3F3234A6D
:101E3C00A2FB03235B091901BA6813469B001344E8
:101E4C009A001A447B685B689B00B2FBF3F21B4B55
:101E5C00A3FB02035B09642000FB03F3D31A1B01F1
:101E6C003233164AA2FB03235B0903F0F003194437
:101E7C00BA6813469B0013449A001A447B685B684B
:101E8C009B00B2FBF3F20D4BA3FB02035B09642036
:101E9C0000FB03F3D31A1B013233084AA2FB0323C2
:101EAC005B0903F00F027B681B680A449A6000BF51
:101EBC001037BD4680BD00BF003801401F85EB5177
:101ECC0003460244934200D1704703F8011BF9E723
:101EDC0070B500260C4D0D4C641BA410A64209D104
:101EEC0000F01AF800260A4D0A4C641BA410A642F6
:101EFC0005D170BD55F8043B98470136EEE755F80F
:101F0C00043B98470136F2E7AC1F0008AC1F0008F1
:101F1C00AC1F0008B01F0008F8B500BFF8BC08BC27
:101F2C009E467047F8B500BFF8BC08BC9E4670478B
:101F3C005369676E616C206F6620746865206368F6
:101F4C00617261637465723A200000003100000018
:101F5C00300000000D0A0000596F75722063686133
:101F6C00726163746572207761733A20000000001F
:101F7C000D0A0D0A000000000203040506070809FB
:101F8C000A0B0C0D0E0F10100000000000000000DA
:101F9C000102030406070809000000000102030403
:041FAC0031010008F7
:041FB0000D01000817
:101FB400FFFFFFFF01000000FFFFFFFF0024F4000C
:081FC400100000000100000004
:04000005080006DD0C
:00000001FF
